{"abi":[{"type":"constructor","inputs":[{"name":"_tokenAddress","type":"address","internalType":"address"}],"stateMutability":"nonpayable"},{"type":"function","name":"RATE_DIVISOR","inputs":[],"outputs":[{"name":"","type":"uint256","internalType":"uint256"}],"stateMutability":"view"},{"type":"function","name":"calculateInterest","inputs":[{"name":"user","type":"address","internalType":"address"}],"outputs":[{"name":"","type":"uint256","internalType":"uint256"}],"stateMutability":"view"},{"type":"function","name":"deposits","inputs":[{"name":"","type":"address","internalType":"address"}],"outputs":[{"name":"amount","type":"uint256","internalType":"uint256"},{"name":"timestamp","type":"uint256","internalType":"uint256"}],"stateMutability":"view"},{"type":"function","name":"getContractTokenBalance","inputs":[],"outputs":[{"name":"","type":"uint256","internalType":"uint256"}],"stateMutability":"view"},{"type":"function","name":"interestRate","inputs":[],"outputs":[{"name":"","type":"uint256","internalType":"uint256"}],"stateMutability":"view"},{"type":"function","name":"supply","inputs":[{"name":"amount","type":"uint256","internalType":"uint256"}],"outputs":[],"stateMutability":"nonpayable"},{"type":"function","name":"token","inputs":[],"outputs":[{"name":"","type":"address","internalType":"contract IERC20"}],"stateMutability":"view"},{"type":"function","name":"withdraw","inputs":[],"outputs":[],"stateMutability":"nonpayable"}],"bytecode":{"object":"0x6080604052348015600f57600080fd5b506040516106dc3803806106dc833981016040819052602c916056565b600080546001600160a01b0319166001600160a01b03929092169190911790556101f46001556084565b600060208284031215606757600080fd5b81516001600160a01b0381168114607d57600080fd5b9392505050565b610649806100936000396000f3fe608060405234801561001057600080fd5b50600436106100885760003560e01c80637c3a00fd1161005b5780637c3a00fd146100ce578063e11932cf146100d7578063fc0c546a146100ea578063fc7e286d1461011557600080fd5b80632965e84c1461008d578063317d9453146100a957806335403023146100b15780633ccfd60b146100c6575b600080fd5b61009661271081565b6040519081526020015b60405180910390f35b610096610151565b6100c46100bf366004610514565b6101c3565b005b6100c461032c565b61009660015481565b6100966100e536600461052d565b610473565b6000546100fd906001600160a01b031681565b6040516001600160a01b0390911681526020016100a0565b61013c61012336600461052d565b6002602052600090815260409020805460019091015482565b604080519283526020830191909152016100a0565b600080546040516370a0823160e01b81523060048201526001600160a01b03909116906370a0823190602401602060405180830381865afa15801561019a573d6000803e3d6000fd5b505050506040513d601f19601f820116820180604052508101906101be919061055d565b905090565b600081116102185760405162461bcd60e51b815260206004820152601a60248201527f4d75737420737570706c79206d6f7265207468616e207a65726f00000000000060448201526064015b60405180910390fd5b6000546040516323b872dd60e01b8152336004820152306024820152604481018390526001600160a01b03909116906323b872dd906064016020604051808303816000875af115801561026f573d6000803e3d6000fd5b505050506040513d601f19601f820116820180604052508101906102939190610576565b6102d75760405162461bcd60e51b8152602060048201526015602482015274151bdad95b881d1c985b9cd9995c8819985a5b1959605a1b604482015260640161020f565b60006102e233610473565b90506102ee81836105ae565b336000908152600260205260408120805490919061030d9084906105ae565b9091555050336000908152600260205260409020426001909101555050565b33600090815260026020526040902054806103805760405162461bcd60e51b81526020600482015260146024820152734e6f2066756e647320746f20776974686472617760601b604482015260640161020f565b600061038b33610473565b9050600061039982846105ae565b336000818152600260205260408082208281556001018290559054905163a9059cbb60e01b81526004810192909252602482018390529192506001600160a01b039091169063a9059cbb906044016020604051808303816000875af1158015610406573d6000803e3d6000fd5b505050506040513d601f19601f8201168201806040525081019061042a9190610576565b61046e5760405162461bcd60e51b8152602060048201526015602482015274151bdad95b881d1c985b9cd9995c8819985a5b1959605a1b604482015260640161020f565b505050565b6001600160a01b038116600090815260026020908152604080832081518083019092528054808352600190910154928201929092529082036104b85750600092915050565b60008160200151426104ca91906105c7565b9050600061271060015484600001516104e391906105da565b6104ed91906105f1565b905060006301e1338061050084846105da565b61050a91906105f1565b9695505050505050565b60006020828403121561052657600080fd5b5035919050565b60006020828403121561053f57600080fd5b81356001600160a01b038116811461055657600080fd5b9392505050565b60006020828403121561056f57600080fd5b5051919050565b60006020828403121561058857600080fd5b8151801515811461055657600080fd5b634e487b7160e01b600052601160045260246000fd5b808201808211156105c1576105c1610598565b92915050565b818103818111156105c1576105c1610598565b80820281158282048414176105c1576105c1610598565b60008261060e57634e487b7160e01b600052601260045260246000fd5b50049056fea26469706673582212207ede534ff81d85b06e68a6df8aac5dffced1ccf28eb3410571db6f8d87bed80d64736f6c634300081c0033","linkReferences":{}},"methodIdentifiers":{"RATE_DIVISOR()":"2965e84c","calculateInterest(address)":"e11932cf","deposits(address)":"fc7e286d","getContractTokenBalance()":"317d9453","interestRate()":"7c3a00fd","supply(uint256)":"35403023","token()":"fc0c546a","withdraw()":"3ccfd60b"},"id":0}